:060000000200690200D3BA
:03000B000200D818
:030013000200D90F
:03001B000200DA06
:030023000200DBFD
:03002B000200DCF4
:030033000200DDEB
:03003B000200DEE2
:030043000200DFD9
:03004B000200E0D0
:030053000200E1C7
:03005B000200E2BE
:030063000200E3B5
:0300C200020066D3
:030066000200C5D0
:1F00C50075B2FEC281D2A8D288D2AF80FE22C2AFD2813232323232323232323232323271
:06009800E478FFF6D8FD3C
:200076007900E94400601B7A009000E87801759200E493F2A308B800020592D9F4DAF27564
:0200960092FFD7
:20009E007800E84400600A7901759200E4F309D8FC7800E84400600C7900900001E4F0A36E
:0400BE00D8FCD9FA97
:0D0069007581071200E4E582600302006665
:0400E40075820022FF
:00000001FF
